{
  "_format": "hh-sol-artifact-1",
  "contractName": "BycClub",
  "sourceName": "contracts/BycClub.sol",
  "abi": [
    {
      "inputs": [],
      "stateMutability": "nonpayable",
      "type": "constructor"
    },
    {
      "inputs": [
        {
          "internalType": "address",
          "name": "walletAddress",
          "type": "address"
        }
      ],
      "name": "Deposit",
      "outputs": [],
      "stateMutability": "payable",
      "type": "function"
    },
    {
      "inputs": [
        {
          "internalType": "address",
          "name": "walletAddress",
          "type": "address"
        },
        {
          "internalType": "uint256",
          "name": "amount",
          "type": "uint256"
        }
      ],
      "name": "Payment",
      "outputs": [],
      "stateMutability": "nonpayable",
      "type": "function"
    },
    {
      "inputs": [
        {
          "internalType": "address payable",
          "name": "walletAddress",
          "type": "address"
        },
        {
          "internalType": "string",
          "name": "firstName",
          "type": "string"
        },
        {
          "internalType": "string",
          "name": "lastName",
          "type": "string"
        },
        {
          "internalType": "bool",
          "name": "canRent",
          "type": "bool"
        },
        {
          "internalType": "bool",
          "name": "active",
          "type": "bool"
        },
        {
          "internalType": "uint256",
          "name": "balance",
          "type": "uint256"
        },
        {
          "internalType": "uint256",
          "name": "due",
          "type": "uint256"
        },
        {
          "internalType": "uint256",
          "name": "start",
          "type": "uint256"
        },
        {
          "internalType": "uint256",
          "name": "end",
          "type": "uint256"
        }
      ],
      "name": "addRenter",
      "outputs": [],
      "stateMutability": "nonpayable",
      "type": "function"
    },
    {
      "inputs": [],
      "name": "balanceOf",
      "outputs": [
        {
          "internalType": "uint256",
          "name": "",
          "type": "uint256"
        }
      ],
      "stateMutability": "view",
      "type": "function"
    },
    {
      "inputs": [
        {
          "internalType": "address",
          "name": "walletAddress",
          "type": "address"
        }
      ],
      "name": "balanceOfRenter",
      "outputs": [
        {
          "internalType": "uint256",
          "name": "",
          "type": "uint256"
        }
      ],
      "stateMutability": "view",
      "type": "function"
    },
    {
      "inputs": [
        {
          "internalType": "address",
          "name": "walletAddress",
          "type": "address"
        }
      ],
      "name": "canRentBicycle",
      "outputs": [
        {
          "internalType": "bool",
          "name": "",
          "type": "bool"
        }
      ],
      "stateMutability": "view",
      "type": "function"
    },
    {
      "inputs": [
        {
          "internalType": "address",
          "name": "walletAddress",
          "type": "address"
        }
      ],
      "name": "checkIn",
      "outputs": [],
      "stateMutability": "nonpayable",
      "type": "function"
    },
    {
      "inputs": [
        {
          "internalType": "address",
          "name": "walletAddress",
          "type": "address"
        }
      ],
      "name": "checkOut",
      "outputs": [],
      "stateMutability": "nonpayable",
      "type": "function"
    },
    {
      "inputs": [
        {
          "internalType": "address",
          "name": "walletAddress",
          "type": "address"
        }
      ],
      "name": "getDue",
      "outputs": [
        {
          "internalType": "uint256",
          "name": "",
          "type": "uint256"
        }
      ],
      "stateMutability": "view",
      "type": "function"
    },
    {
      "inputs": [],
      "name": "getOwnerBalance",
      "outputs": [
        {
          "internalType": "uint256",
          "name": "",
          "type": "uint256"
        }
      ],
      "stateMutability": "view",
      "type": "function"
    },
    {
      "inputs": [
        {
          "internalType": "address",
          "name": "walletAddress",
          "type": "address"
        }
      ],
      "name": "getRenter",
      "outputs": [
        {
          "internalType": "string",
          "name": "firstName",
          "type": "string"
        },
        {
          "internalType": "string",
          "name": "lastName",
          "type": "string"
        },
        {
          "internalType": "bool",
          "name": "canRent",
          "type": "bool"
        },
        {
          "internalType": "bool",
          "name": "active",
          "type": "bool"
        }
      ],
      "stateMutability": "view",
      "type": "function"
    },
    {
      "inputs": [
        {
          "internalType": "address",
          "name": "walletAddress",
          "type": "address"
        }
      ],
      "name": "getTotalDuration",
      "outputs": [
        {
          "internalType": "uint256",
          "name": "",
          "type": "uint256"
        }
      ],
      "stateMutability": "view",
      "type": "function"
    },
    {
      "inputs": [
        {
          "internalType": "address",
          "name": "walletAddress",
          "type": "address"
        }
      ],
      "name": "renterExists",
      "outputs": [
        {
          "internalType": "bool",
          "name": "",
          "type": "bool"
        }
      ],
      "stateMutability": "view",
      "type": "function"
    },
    {
      "inputs": [
        {
          "internalType": "address",
          "name": "",
          "type": "address"
        }
      ],
      "name": "renters",
      "outputs": [
        {
          "internalType": "address payable",
          "name": "walletAddress",
          "type": "address"
        },
        {
          "internalType": "string",
          "name": "firstName",
          "type": "string"
        },
        {
          "internalType": "string",
          "name": "lastName",
          "type": "string"
        },
        {
          "internalType": "bool",
          "name": "canRent",
          "type": "bool"
        },
        {
          "internalType": "bool",
          "name": "active",
          "type": "bool"
        },
        {
          "internalType": "uint256",
          "name": "balance",
          "type": "uint256"
        },
        {
          "internalType": "uint256",
          "name": "due",
          "type": "uint256"
        },
        {
          "internalType": "uint256",
          "name": "start",
          "type": "uint256"
        },
        {
          "internalType": "uint256",
          "name": "end",
          "type": "uint256"
        }
      ],
      "stateMutability": "view",
      "type": "function"
    },
    {
      "inputs": [],
      "name": "withdrawOwnerBalance",
      "outputs": [],
      "stateMutability": "payable",
      "type": "function"
    }
  ],
  "bytecode": "0x608060405234801561001057600080fd5b50336000806101000a81548173ffffffffffffffffffffffffffffffffffffffff021916908373ffffffffffffffffffffffffffffffffffffffff160217905550612666806100606000396000f3fe6080604052600436106100e85760003560e01c80638ce0bd461161008a578063c6d2a84611610059578063c6d2a846146102f7578063d4f4397514610334578063d9a59e331461035d578063f9d8241c14610386576100e8565b80638ce0bd461461026b5780638d23caa014610287578063941b80ac146102b0578063aad1b617146102ba576100e8565b80635e649727116100c65780635e64972714610192578063644a1370146101bb5780636a4b27f414610200578063722713f714610240576100e8565b80632a37e0e5146100ed57806341ba6e891461012a578063590791f214610167575b600080fd5b3480156100f957600080fd5b50610114600480360381019061010f9190611982565b6103c3565b60405161012191906119ca565b60405180910390f35b34801561013657600080fd5b50610151600480360381019061014c9190611982565b61048c565b60405161015e91906119fe565b60405180910390f35b34801561017357600080fd5b5061017c61064d565b60405161018991906119fe565b60405180910390f35b34801561019e57600080fd5b506101b960048036038101906101b49190611bf5565b6106e6565b005b3480156101c757600080fd5b506101e260048036038101906101dd9190611982565b610869565b6040516101f799989796959493929190611d85565b60405180910390f35b34801561020c57600080fd5b5061022760048036038101906102229190611982565b610a01565b6040516102379493929190611e20565b60405180910390f35b34801561024c57600080fd5b50610255610cbc565b60405161026291906119fe565b60405180910390f35b61028560048036038101906102809190611982565b610d53565b005b34801561029357600080fd5b506102ae60048036038101906102a99190611982565b610e1f565b005b6102b86110aa565b005b3480156102c657600080fd5b506102e160048036038101906102dc9190611982565b611115565b6040516102ee91906119fe565b60405180910390f35b34801561030357600080fd5b5061031e60048036038101906103199190611982565b6111d1565b60405161032b91906119fe565b60405180910390f35b34801561034057600080fd5b5061035b60048036038101906103569190611e73565b61128d565b005b34801561036957600080fd5b50610384600480360381019061037f9190611982565b6115af565b005b34801561039257600080fd5b506103ad60048036038101906103a89190611982565b611763565b6040516103ba91906119ca565b60405180910390f35b6000818073ffffffffffffffffffffffffffffffffffffffff163373ffffffffffffffffffffffffffffffffffffffff1614610434576040517f08c379a000000000000000000000000000000000000000000000000000000000815260040161042b90611eff565b60405180910390fd5b600260008473ffffffffffffffffffffffffffffffffffffffff1673ffffffffffffffffffffffffffffffffffffffff16815260200190815260200160002060030160009054906101000a900460ff16915050919050565b6000818073ffffffffffffffffffffffffffffffffffffffff163373ffffffffffffffffffffffffffffffffffffffff16146104fd576040517f08c379a00000000000000000000000000000000000000000000000000000000081526004016104f490611eff565b60405180910390fd5b6000600260008573ffffffffffffffffffffffffffffffffffffffff1673ffffffffffffffffffffffffffffffffffffffff16815260200190815260200160002060060154148061059057506000600260008573ffffffffffffffffffffffffffffffffffffffff1673ffffffffffffffffffffffffffffffffffffffff16815260200190815260200160002060070154145b1561059e5760009150610647565b600061062e600260008673ffffffffffffffffffffffffffffffffffffffff1673ffffffffffffffffffffffffffffffffffffffff16815260200190815260200160002060060154600260008773ffffffffffffffffffffffffffffffffffffffff1673ffffffffffffffffffffffffffffffffffffffff1681526020019081526020016000206007015461187e565b90506000603c8261063f9190611f7d565b905080935050505b50919050565b60008060009054906101000a900473ffffffffffffffffffffffffffffffffffffffff1673ffffffffffffffffffffffffffffffffffffffff163373ffffffffffffffffffffffffffffffffffffffff16146106de576040517f08c379a00000000000000000000000000000000000000000000000000000000081526004016106d590611ffa565b60405180910390fd5b600154905090565b6040518061012001604052808a73ffffffffffffffffffffffffffffffffffffffff1681526020018981526020018881526020018715158152602001861515815260200185815260200184815260200183815260200182815250600260008b73ffffffffffffffffffffffffffffffffffffffff1673ffffffffffffffffffffffffffffffffffffffff16815260200190815260200160002060008201518160000160006101000a81548173ffffffffffffffffffffffffffffffffffffffff021916908373ffffffffffffffffffffffffffffffffffffffff16021790555060208201518160010190816107db9190612226565b5060408201518160020190816107f19190612226565b5060608201518160030160006101000a81548160ff02191690831515021790555060808201518160030160016101000a81548160ff02191690831515021790555060a0820151816004015560c0820151816005015560e082015181600601556101008201518160070155905050505050505050505050565b60026020528060005260406000206000915090508060000160009054906101000a900473ffffffffffffffffffffffffffffffffffffffff16908060010180546108b290612049565b80601f01602080910402602001604051908101604052809291908181526020018280546108de90612049565b801561092b5780601f106109005761010080835404028352916020019161092b565b820191906000526020600020905b81548152906001019060200180831161090e57829003601f168201915b50505050509080600201805461094090612049565b80601f016020809104026020016040519081016040528092919081815260200182805461096c90612049565b80156109b95780601f1061098e576101008083540402835291602001916109b9565b820191906000526020600020905b81548152906001019060200180831161099c57829003601f168201915b5050505050908060030160009054906101000a900460ff16908060030160019054906101000a900460ff16908060040154908060050154908060060154908060070154905089565b606080600080848073ffffffffffffffffffffffffffffffffffffffff163373ffffffffffffffffffffffffffffffffffffffff1614610a76576040517f08c379a0000000000000000000000000000000000000000000000000000000008152600401610a6d90611eff565b60405180910390fd5b600260008773ffffffffffffffffffffffffffffffffffffffff1673ffffffffffffffffffffffffffffffffffffffff1681526020019081526020016000206001018054610ac390612049565b80601f0160208091040260200160405190810160405280929190818152602001828054610aef90612049565b8015610b3c5780601f10610b1157610100808354040283529160200191610b3c565b820191906000526020600020905b815481529060010190602001808311610b1f57829003601f168201915b50505050509450600260008773ffffffffffffffffffffffffffffffffffffffff1673ffffffffffffffffffffffffffffffffffffffff1681526020019081526020016000206002018054610b9090612049565b80601f0160208091040260200160405190810160405280929190818152602001828054610bbc90612049565b8015610c095780601f10610bde57610100808354040283529160200191610c09565b820191906000526020600020905b815481529060010190602001808311610bec57829003601f168201915b50505050509350600260008773ffffffffffffffffffffffffffffffffffffffff1673ffffffffffffffffffffffffffffffffffffffff16815260200190815260200160002060030160009054906101000a900460ff169250600260008773ffffffffffffffffffffffffffffffffffffffff1673ffffffffffffffffffffffffffffffffffffffff16815260200190815260200160002060030160019054906101000a900460ff169150509193509193565b60008060009054906101000a900473ffffffffffffffffffffffffffffffffffffffff1673ffffffffffffffffffffffffffffffffffffffff163373ffffffffffffffffffffffffffffffffffffffff1614610d4d576040517f08c379a0000000000000000000000000000000000000000000000000000000008152600401610d4490611ffa565b60405180910390fd5b47905090565b808073ffffffffffffffffffffffffffffffffffffffff163373ffffffffffffffffffffffffffffffffffffffff1614610dc2576040517f08c379a0000000000000000000000000000000000000000000000000000000008152600401610db990611eff565b60405180910390fd5b34600260008473ffffffffffffffffffffffffffffffffffffffff1673ffffffffffffffffffffffffffffffffffffffff1681526020019081526020016000206004016000828254610e1491906122f8565b925050819055505050565b808073ffffffffffffffffffffffffffffffffffffffff163373ffffffffffffffffffffffffffffffffffffffff1614610e8e576040517f08c379a0000000000000000000000000000000000000000000000000000000008152600401610e8590611eff565b60405180910390fd5b6000600260008473ffffffffffffffffffffffffffffffffffffffff1673ffffffffffffffffffffffffffffffffffffffff1681526020019081526020016000206005015414610f13576040517f08c379a0000000000000000000000000000000000000000000000000000000008152600401610f0a90612378565b60405180910390fd5b60011515600260008473ffffffffffffffffffffffffffffffffffffffff1673ffffffffffffffffffffffffffffffffffffffff16815260200190815260200160002060030160009054906101000a900460ff16151514610fa9576040517f08c379a0000000000000000000000000000000000000000000000000000000008152600401610fa0906123e4565b60405180910390fd5b6001600260008473ffffffffffffffffffffffffffffffffffffffff1673ffffffffffffffffffffffffffffffffffffffff16815260200190815260200160002060030160016101000a81548160ff02191690831515021790555042600260008473ffffffffffffffffffffffffffffffffffffffff1673ffffffffffffffffffffffffffffffffffffffff168152602001908152602001600020600601819055506000600260008473ffffffffffffffffffffffffffffffffffffffff1673ffffffffffffffffffffffffffffffffffffffff16815260200190815260200160002060030160006101000a81548160ff0219169083151502179055505050565b60008054906101000a900473ffffffffffffffffffffffffffffffffffffffff1673ffffffffffffffffffffffffffffffffffffffff166108fc6001549081150290604051600060405180830381858888f19350505050158015611112573d6000803e3d6000fd5b50565b6000818073ffffffffffffffffffffffffffffffffffffffff163373ffffffffffffffffffffffffffffffffffffffff1614611186576040517f08c379a000000000000000000000000000000000000000000000000000000000815260040161117d90611eff565b60405180910390fd5b600260008473ffffffffffffffffffffffffffffffffffffffff1673ffffffffffffffffffffffffffffffffffffffff16815260200190815260200160002060040154915050919050565b6000818073ffffffffffffffffffffffffffffffffffffffff163373ffffffffffffffffffffffffffffffffffffffff1614611242576040517f08c379a000000000000000000000000000000000000000000000000000000000815260040161123990611eff565b60405180910390fd5b600260008473ffffffffffffffffffffffffffffffffffffffff1673ffffffffffffffffffffffffffffffffffffffff16815260200190815260200160002060050154915050919050565b818073ffffffffffffffffffffffffffffffffffffffff163373ffffffffffffffffffffffffffffffffffffffff16146112fc576040517f08c379a00000000000000000000000000000000000000000000000000000000081526004016112f390611eff565b60405180910390fd5b6000600260008573ffffffffffffffffffffffffffffffffffffffff1673ffffffffffffffffffffffffffffffffffffffff1681526020019081526020016000206005015411611381576040517f08c379a000000000000000000000000000000000000000000000000000000000815260040161137890612476565b60405180910390fd5b81600260008573ffffffffffffffffffffffffffffffffffffffff1673ffffffffffffffffffffffffffffffffffffffff1681526020019081526020016000206004015411611405576040517f08c379a00000000000000000000000000000000000000000000000000000000081526004016113fc9061252e565b60405180910390fd5b81600260008573ffffffffffffffffffffffffffffffffffffffff1673ffffffffffffffffffffffffffffffffffffffff1681526020019081526020016000206004016000828254611457919061254e565b92505081905550816001600082825461147091906122f8565b925050819055506001600260008573ffffffffffffffffffffffffffffffffffffffff1673ffffffffffffffffffffffffffffffffffffffff16815260200190815260200160002060030160006101000a81548160ff0219169083151502179055506000600260008573ffffffffffffffffffffffffffffffffffffffff1673ffffffffffffffffffffffffffffffffffffffff168152602001908152602001600020600501819055506000600260008573ffffffffffffffffffffffffffffffffffffffff1673ffffffffffffffffffffffffffffffffffffffff168152602001908152602001600020600601819055506000600260008573ffffffffffffffffffffffffffffffffffffffff1673ffffffffffffffffffffffffffffffffffffffff16815260200190815260200160002060070181905550505050565b808073ffffffffffffffffffffffffffffffffffffffff163373ffffffffffffffffffffffffffffffffffffffff161461161e576040517f08c379a000000000000000000000000000000000000000000000000000000000815260040161161590611eff565b60405180910390fd5b60011515600260008473ffffffffffffffffffffffffffffffffffffffff1673ffffffffffffffffffffffffffffffffffffffff16815260200190815260200160002060030160019054906101000a900460ff161515146116b4576040517f08c379a00000000000000000000000000000000000000000000000000000000081526004016116ab906125ce565b60405180910390fd5b6000600260008473ffffffffffffffffffffffffffffffffffffffff1673ffffffffffffffffffffffffffffffffffffffff16815260200190815260200160002060030160016101000a81548160ff02191690831515021790555042600260008473ffffffffffffffffffffffffffffffffffffffff1673ffffffffffffffffffffffffffffffffffffffff1681526020019081526020016000206007018190555061175f82611894565b5050565b6000818073ffffffffffffffffffffffffffffffffffffffff163373ffffffffffffffffffffffffffffffffffffffff16146117d4576040517f08c379a00000000000000000000000000000000000000000000000000000000081526004016117cb90611eff565b60405180910390fd5b600073ffffffffffffffffffffffffffffffffffffffff16600260008573ffffffffffffffffffffffffffffffffffffffff1673ffffffffffffffffffffffffffffffffffffffff16815260200190815260200160002060000160009054906101000a900473ffffffffffffffffffffffffffffffffffffffff1673ffffffffffffffffffffffffffffffffffffffff16146118735760019150611878565b600091505b50919050565b6000828261188c919061254e565b905092915050565b600061189f8261048c565b905060006001826118b09190611f7d565b905066038d7ea4c68000816118c591906125ee565b600260008573ffffffffffffffffffffffffffffffffffffffff1673ffffffffffffffffffffffffffffffffffffffff16815260200190815260200160002060050181905550505050565b6000604051905090565b600080fd5b600080fd5b600073ffffffffffffffffffffffffffffffffffffffff82169050919050565b600061194f82611924565b9050919050565b61195f81611944565b811461196a57600080fd5b50565b60008135905061197c81611956565b92915050565b6000602082840312156119985761199761191a565b5b60006119a68482850161196d565b91505092915050565b60008115159050919050565b6119c4816119af565b82525050565b60006020820190506119df60008301846119bb565b92915050565b6000819050919050565b6119f8816119e5565b82525050565b6000602082019050611a1360008301846119ef565b92915050565b6000611a2482611924565b9050919050565b611a3481611a19565b8114611a3f57600080fd5b50565b600081359050611a5181611a2b565b92915050565b600080fd5b600080fd5b6000601f19601f8301169050919050565b7f4e487b7100000000000000000000000000000000000000000000000000000000600052604160045260246000fd5b611aaa82611a61565b810181811067ffffffffffffffff82111715611ac957611ac8611a72565b5b80604052505050565b6000611adc611910565b9050611ae88282611aa1565b919050565b600067ffffffffffffffff821115611b0857611b07611a72565b5b611b1182611a61565b9050602081019050919050565b82818337600083830152505050565b6000611b40611b3b84611aed565b611ad2565b905082815260208101848484011115611b5c57611b5b611a5c565b5b611b67848285611b1e565b509392505050565b600082601f830112611b8457611b83611a57565b5b8135611b94848260208601611b2d565b91505092915050565b611ba6816119af565b8114611bb157600080fd5b50565b600081359050611bc381611b9d565b92915050565b611bd2816119e5565b8114611bdd57600080fd5b50565b600081359050611bef81611bc9565b92915050565b60008060008060008060008060006101208a8c031215611c1857611c1761191a565b5b6000611c268c828d01611a42565b99505060208a013567ffffffffffffffff811115611c4757611c4661191f565b5b611c538c828d01611b6f565b98505060408a013567ffffffffffffffff811115611c7457611c7361191f565b5b611c808c828d01611b6f565b9750506060611c918c828d01611bb4565b9650506080611ca28c828d01611bb4565b95505060a0611cb38c828d01611be0565b94505060c0611cc48c828d01611be0565b93505060e0611cd58c828d01611be0565b925050610100611ce78c828d01611be0565b9150509295985092959850929598565b611d0081611a19565b82525050565b600081519050919050565b600082825260208201905092915050565b60005b83811015611d40578082015181840152602081019050611d25565b60008484015250505050565b6000611d5782611d06565b611d618185611d11565b9350611d71818560208601611d22565b611d7a81611a61565b840191505092915050565b600061012082019050611d9b600083018c611cf7565b8181036020830152611dad818b611d4c565b90508181036040830152611dc1818a611d4c565b9050611dd060608301896119bb565b611ddd60808301886119bb565b611dea60a08301876119ef565b611df760c08301866119ef565b611e0460e08301856119ef565b611e126101008301846119ef565b9a9950505050505050505050565b60006080820190508181036000830152611e3a8187611d4c565b90508181036020830152611e4e8186611d4c565b9050611e5d60408301856119bb565b611e6a60608301846119bb565b95945050505050565b60008060408385031215611e8a57611e8961191a565b5b6000611e988582860161196d565b9250506020611ea985828601611be0565b9150509250929050565b7f596f752063616e206f6e6c79206d616e61676520796f7572206163636f756e74600082015250565b6000611ee9602083611d11565b9150611ef482611eb3565b602082019050919050565b60006020820190508181036000830152611f1881611edc565b9050919050565b7f4e487b7100000000000000000000000000000000000000000000000000000000600052601260045260246000fd5b7f4e487b7100000000000000000000000000000000000000000000000000000000600052601160045260246000fd5b6000611f88826119e5565b9150611f93836119e5565b925082611fa357611fa2611f1f565b5b828204905092915050565b7f6163636573732064656e69656400000000000000000000000000000000000000600082015250565b6000611fe4600d83611d11565b9150611fef82611fae565b602082019050919050565b6000602082019050818103600083015261201381611fd7565b9050919050565b7f4e487b7100000000000000000000000000000000000000000000000000000000600052602260045260246000fd5b6000600282049050600182168061206157607f821691505b6020821081036120745761207361201a565b5b50919050565b60008190508160005260206000209050919050565b60006020601f8301049050919050565b600082821b905092915050565b6000600883026120dc7fffffffffffffffffffffffffffffffffffffffffffffffffffffffffffffffff8261209f565b6120e6868361209f565b95508019841693508086168417925050509392505050565b6000819050919050565b600061212361211e612119846119e5565b6120fe565b6119e5565b9050919050565b6000819050919050565b61213d83612108565b6121516121498261212a565b8484546120ac565b825550505050565b600090565b612166612159565b612171818484612134565b505050565b5b818110156121955761218a60008261215e565b600181019050612177565b5050565b601f8211156121da576121ab8161207a565b6121b48461208f565b810160208510156121c3578190505b6121d76121cf8561208f565b830182612176565b50505b505050565b600082821c905092915050565b60006121fd600019846008026121df565b1980831691505092915050565b600061221683836121ec565b9150826002028217905092915050565b61222f82611d06565b67ffffffffffffffff81111561224857612247611a72565b5b6122528254612049565b61225d828285612199565b600060209050601f831160018114612290576000841561227e578287015190505b612288858261220a565b8655506122f0565b601f19841661229e8661207a565b60005b828110156122c6578489015182556001820191506020850194506020810190506122a1565b868310156122e357848901516122df601f8916826121ec565b8355505b6001600288020188555050505b505050505050565b6000612303826119e5565b915061230e836119e5565b925082820190508082111561232657612325611f4e565b5b92915050565b7f596f75206861766520736f6d652062616c616e6365206475652e000000000000600082015250565b6000612362601a83611d11565b915061236d8261232c565b602082019050919050565b6000602082019050818103600083015261239181612355565b9050919050565b7f596f752063616e6e6f742072656e7420617420746869732074696d652e000000600082015250565b60006123ce601d83611d11565b91506123d982612398565b602082019050919050565b600060208201905081810360008301526123fd816123c1565b9050919050565b7f596f7520646f206e6f74206861766520616e797468696e67206475652061742060008201527f746869732074696d652e00000000000000000000000000000000000000000000602082015250565b6000612460602a83611d11565b915061246b82612404565b604082019050919050565b6000602082019050818103600083015261248f81612453565b9050919050565b7f596f7520646f206e6f74206861766520656e6f7567682066756e647320746f2060008201527f636f766572207061796d656e742e20506c65617365206d616b6520612064657060208201527f6f7369742e000000000000000000000000000000000000000000000000000000604082015250565b6000612518604583611d11565b915061252382612496565b606082019050919050565b600060208201905081810360008301526125478161250b565b9050919050565b6000612559826119e5565b9150612564836119e5565b925082820390508181111561257c5761257b611f4e565b5b92915050565b7f506c6561736520636865636b206f7574206120726964652066697273742e0000600082015250565b60006125b8601e83611d11565b91506125c382612582565b602082019050919050565b600060208201905081810360008301526125e7816125ab565b9050919050565b60006125f9826119e5565b9150612604836119e5565b9250828202612612816119e5565b9150828204841483151761262957612628611f4e565b5b509291505056fea2646970667358221220fb281255310779701e49d3fa81d2a0747e4064774e4342ff68f26f8e5eadb49864736f6c63430008110033",
  "linkReferences": {},
  "deployedLinkReferences": {}
}